{
  "contractName": "Voting",
  "abi": [
    {
      "inputs": [],
      "stateMutability": "nonpayable",
      "type": "constructor"
    },
    {
      "anonymous": false,
      "inputs": [
        {
          "indexed": true,
          "internalType": "address",
          "name": "previousOwner",
          "type": "address"
        },
        {
          "indexed": true,
          "internalType": "address",
          "name": "newOwner",
          "type": "address"
        }
      ],
      "name": "OwnershipTransferred",
      "type": "event"
    },
    {
      "anonymous": false,
      "inputs": [
        {
          "indexed": false,
          "internalType": "uint256",
          "name": "proposalId",
          "type": "uint256"
        }
      ],
      "name": "ProposalRegistered",
      "type": "event"
    },
    {
      "anonymous": false,
      "inputs": [
        {
          "indexed": false,
          "internalType": "address",
          "name": "voter",
          "type": "address"
        },
        {
          "indexed": false,
          "internalType": "uint256",
          "name": "proposalId",
          "type": "uint256"
        }
      ],
      "name": "Voted",
      "type": "event"
    },
    {
      "anonymous": false,
      "inputs": [
        {
          "indexed": false,
          "internalType": "address",
          "name": "voterAddress",
          "type": "address"
        }
      ],
      "name": "VoterRegistered",
      "type": "event"
    },
    {
      "anonymous": false,
      "inputs": [
        {
          "indexed": false,
          "internalType": "enum Voting.WorkflowStatus",
          "name": "previousStatus",
          "type": "uint8"
        },
        {
          "indexed": false,
          "internalType": "enum Voting.WorkflowStatus",
          "name": "newStatus",
          "type": "uint8"
        }
      ],
      "name": "WorkflowStatusChange",
      "type": "event"
    },
    {
      "inputs": [],
      "name": "owner",
      "outputs": [
        {
          "internalType": "address",
          "name": "",
          "type": "address"
        }
      ],
      "stateMutability": "view",
      "type": "function"
    },
    {
      "inputs": [],
      "name": "renounceOwnership",
      "outputs": [],
      "stateMutability": "nonpayable",
      "type": "function"
    },
    {
      "inputs": [
        {
          "internalType": "address",
          "name": "newOwner",
          "type": "address"
        }
      ],
      "name": "transferOwnership",
      "outputs": [],
      "stateMutability": "nonpayable",
      "type": "function"
    },
    {
      "inputs": [],
      "name": "winningProposalID",
      "outputs": [
        {
          "internalType": "uint256",
          "name": "",
          "type": "uint256"
        }
      ],
      "stateMutability": "view",
      "type": "function"
    },
    {
      "inputs": [],
      "name": "workflowStatus",
      "outputs": [
        {
          "internalType": "enum Voting.WorkflowStatus",
          "name": "",
          "type": "uint8"
        }
      ],
      "stateMutability": "view",
      "type": "function"
    },
    {
      "inputs": [
        {
          "internalType": "address",
          "name": "_addr",
          "type": "address"
        }
      ],
      "name": "getVoter",
      "outputs": [
        {
          "components": [
            {
              "internalType": "bool",
              "name": "isRegistered",
              "type": "bool"
            },
            {
              "internalType": "bool",
              "name": "hasVoted",
              "type": "bool"
            },
            {
              "internalType": "uint256",
              "name": "votedProposalId",
              "type": "uint256"
            }
          ],
          "internalType": "struct Voting.Voter",
          "name": "",
          "type": "tuple"
        }
      ],
      "stateMutability": "view",
      "type": "function"
    },
    {
      "inputs": [
        {
          "internalType": "uint256",
          "name": "_id",
          "type": "uint256"
        }
      ],
      "name": "getOneProposal",
      "outputs": [
        {
          "components": [
            {
              "internalType": "string",
              "name": "description",
              "type": "string"
            },
            {
              "internalType": "uint256",
              "name": "voteCount",
              "type": "uint256"
            }
          ],
          "internalType": "struct Voting.Proposal",
          "name": "",
          "type": "tuple"
        }
      ],
      "stateMutability": "view",
      "type": "function"
    },
    {
      "inputs": [
        {
          "internalType": "address",
          "name": "_addr",
          "type": "address"
        }
      ],
      "name": "addVoter",
      "outputs": [],
      "stateMutability": "nonpayable",
      "type": "function"
    },
    {
      "inputs": [
        {
          "internalType": "string",
          "name": "_desc",
          "type": "string"
        }
      ],
      "name": "addProposal",
      "outputs": [],
      "stateMutability": "nonpayable",
      "type": "function"
    },
    {
      "inputs": [
        {
          "internalType": "uint256",
          "name": "_id",
          "type": "uint256"
        }
      ],
      "name": "setVote",
      "outputs": [],
      "stateMutability": "nonpayable",
      "type": "function"
    },
    {
      "inputs": [],
      "name": "startProposalsRegistering",
      "outputs": [],
      "stateMutability": "nonpayable",
      "type": "function"
    },
    {
      "inputs": [],
      "name": "endProposalsRegistering",
      "outputs": [],
      "stateMutability": "nonpayable",
      "type": "function"
    },
    {
      "inputs": [],
      "name": "startVotingSession",
      "outputs": [],
      "stateMutability": "nonpayable",
      "type": "function"
    },
    {
      "inputs": [],
      "name": "endVotingSession",
      "outputs": [],
      "stateMutability": "nonpayable",
      "type": "function"
    },
    {
      "inputs": [],
      "name": "tallyVotes",
      "outputs": [],
      "stateMutability": "nonpayable",
      "type": "function"
    }
  ],
  "bytecode": "0x608060405234801561000f575f80fd5b5061002c61002161003160201b60201c565b61003860201b60201c565b6100f9565b5f33905090565b5f805f9054906101000a900473ffffffffffffffffffffffffffffffffffffffff169050815f806101000a81548173ffffffffffffffffffffffffffffffffffffffff021916908373ffffffffffffffffffffffffffffffffffffffff1602179055508173ffffffffffffffffffffffffffffffffffffffff168173ffffffffffffffffffffffffffffffffffffffff167f8be0079c531659141344cd1fd0a4f28419497f9722a3daafe3b4186f6b6457e060405160405180910390a35050565b61236580620001075f395ff3fe608060405234801561000f575f80fd5b50600436106100f3575f3560e01c8063a7bfab1611610095578063d4f50f9811610064578063d4f50f98146101eb578063ee74c6781461021b578063f2fde38b14610225578063f4ab9adf14610241576100f3565b8063a7bfab16146101af578063bdc01431146101b9578063c7038a4e146101d7578063c88af42f146101e1576100f3565b8063715018a6116100d1578063715018a6146101395780638da5cb5b14610143578063a1edffa214610161578063a2788cce1461017f576100f3565b8063230796ae146100f75780632fdae3c514610113578063378a21781461012f575b5f80fd5b610111600480360381019061010c91906113ec565b61025d565b005b61012d60048036038101906101289190611478565b610548565b005b6101376107bf565b005b610141610924565b005b61014b610937565b6040516101589190611502565b60405180910390f35b61016961095e565b604051610176919061158e565b60405180910390f35b610199600480360381019061019491906113ec565b610970565b6040516101a6919061167a565b60405180910390f35b6101b7610ace565b005b6101c1610bb2565b6040516101ce91906116a9565b60405180910390f35b6101df610bb8565b005b6101e9610d29565b005b610205600480360381019061020091906116ec565b610e0c565b6040516102129190611771565b60405180910390f35b610223610f2b565b005b61023f600480360381019061023a91906116ec565b61100f565b005b61025b600480360381019061025691906116ec565b611091565b005b60045f3373ffffffffffffffffffffffffffffffffffffffff1673ffffffffffffffffffffffffffffffffffffffff1681526020019081526020015f205f015f9054906101000a900460ff166102e8576040517f08c379a00000000000000000000000000000000000000000000000000000000081526004016102df906117e4565b60405180910390fd5b600360058111156102fc576102fb61151b565b5b60025f9054906101000a900460ff16600581111561031d5761031c61151b565b5b1461035d576040517f08c379a000000000000000000000000000000000000000000000000000000000815260040161035490611872565b60405180910390fd5b6001151560045f3373ffffffffffffffffffffffffffffffffffffffff1673ffffffffffffffffffffffffffffffffffffffff1681526020019081526020015f205f0160019054906101000a900460ff161515036103f0576040517f08c379a00000000000000000000000000000000000000000000000000000000081526004016103e7906118da565b60405180910390fd5b6003805490508110610437576040517f08c379a000000000000000000000000000000000000000000000000000000000815260040161042e90611942565b60405180910390fd5b8060045f3373ffffffffffffffffffffffffffffffffffffffff1673ffffffffffffffffffffffffffffffffffffffff1681526020019081526020015f2060010181905550600160045f3373ffffffffffffffffffffffffffffffffffffffff1673ffffffffffffffffffffffffffffffffffffffff1681526020019081526020015f205f0160016101000a81548160ff021916908315150217905550600381815481106104e8576104e7611960565b5b905f5260205f2090600202016001015f815480929190610507906119ba565b91905055507f4d99b957a2bc29a30ebd96a7be8e68fe50a3c701db28a91436490b7d53870ca4338260405161053d929190611a01565b60405180910390a150565b60045f3373ffffffffffffffffffffffffffffffffffffffff1673ffffffffffffffffffffffffffffffffffffffff1681526020019081526020015f205f015f9054906101000a900460ff166105d3576040517f08c379a00000000000000000000000000000000000000000000000000000000081526004016105ca906117e4565b60405180910390fd5b600160058111156105e7576105e661151b565b5b60025f9054906101000a900460ff1660058111156106085761060761151b565b5b14610648576040517f08c379a000000000000000000000000000000000000000000000000000000000815260040161063f90611a72565b60405180910390fd5b60405160200161065790611ab3565b604051602081830303815290604052805190602001208282604051602001610680929190611b0b565b60405160208183030381529060405280519060200120036106d6576040517f08c379a00000000000000000000000000000000000000000000000000000000081526004016106cd90611b9d565b60405180910390fd5b6106de611376565b82828080601f0160208091040260200160405190810160405280939291908181526020018383808284375f81840152601f19601f82011690508083019250505050505050815f0181905250600381908060018154018082558091505060019003905f5260205f2090600202015f909190919091505f820151815f0190816107659190611de2565b506020820151816001015550507f92e393e9b54e2f801d3ea4beb0c5e71a21cc34a5d34b77d0fb8a3aa1650dc18f60016003805490506107a59190611eb1565b6040516107b291906116a9565b60405180910390a1505050565b6107c7611230565b600460058111156107db576107da61151b565b5b60025f9054906101000a900460ff1660058111156107fc576107fb61151b565b5b1461083c576040517f08c379a000000000000000000000000000000000000000000000000000000000815260040161083390611f54565b60405180910390fd5b5f805f90505b6003805490508110156108b4576003828154811061086357610862611960565b5b905f5260205f209060020201600101546003828154811061088757610886611960565b5b905f5260205f2090600202016001015411156108a1578091505b80806108ac906119ba565b915050610842565b5080600181905550600560025f6101000a81548160ff021916908360058111156108e1576108e061151b565b5b02179055507f0a97a4ee45751e2abf3e4fc8946939630b11b371ea8ae39ccdc3056e98f5cc3f60046005604051610919929190611f72565b60405180910390a150565b61092c611230565b6109355f6112ae565b565b5f805f9054906101000a900473ffffffffffffffffffffffffffffffffffffffff16905090565b60025f9054906101000a900460ff1681565b610978611376565b60045f3373ffffffffffffffffffffffffffffffffffffffff1673ffffffffffffffffffffffffffffffffffffffff1681526020019081526020015f205f015f9054906101000a900460ff16610a03576040517f08c379a00000000000000000000000000000000000000000000000000000000081526004016109fa906117e4565b60405180910390fd5b60038281548110610a1757610a16611960565b5b905f5260205f2090600202016040518060400160405290815f82018054610a3d90611c15565b80601f0160208091040260200160405190810160405280929190818152602001828054610a6990611c15565b8015610ab45780601f10610a8b57610100808354040283529160200191610ab4565b820191905f5260205f20905b815481529060010190602001808311610a9757829003601f168201915b505050505081526020016001820154815250509050919050565b610ad6611230565b60036005811115610aea57610ae961151b565b5b60025f9054906101000a900460ff166005811115610b0b57610b0a61151b565b5b14610b4b576040517f08c379a0000000000000000000000000000000000000000000000000000000008152600401610b4290611872565b60405180910390fd5b600460025f6101000a81548160ff02191690836005811115610b7057610b6f61151b565b5b02179055507f0a97a4ee45751e2abf3e4fc8946939630b11b371ea8ae39ccdc3056e98f5cc3f60036004604051610ba8929190611f72565b60405180910390a1565b60015481565b610bc0611230565b5f6005811115610bd357610bd261151b565b5b60025f9054906101000a900460ff166005811115610bf457610bf361151b565b5b14610c34576040517f08c379a0000000000000000000000000000000000000000000000000000000008152600401610c2b90612009565b60405180910390fd5b600160025f6101000a81548160ff02191690836005811115610c5957610c5861151b565b5b0217905550610c66611376565b6040518060400160405280600781526020017f47454e4553495300000000000000000000000000000000000000000000000000815250815f0181905250600381908060018154018082558091505060019003905f5260205f2090600202015f909190919091505f820151815f019081610cdf9190611de2565b506020820151816001015550507f0a97a4ee45751e2abf3e4fc8946939630b11b371ea8ae39ccdc3056e98f5cc3f5f6001604051610d1e929190611f72565b60405180910390a150565b610d31611230565b60016005811115610d4557610d4461151b565b5b60025f9054906101000a900460ff166005811115610d6657610d6561151b565b5b14610da6576040517f08c379a0000000000000000000000000000000000000000000000000000000008152600401610d9d90612097565b60405180910390fd5b6002805f6101000a81548160ff02191690836005811115610dca57610dc961151b565b5b02179055507f0a97a4ee45751e2abf3e4fc8946939630b11b371ea8ae39ccdc3056e98f5cc3f60016002604051610e02929190611f72565b60405180910390a1565b610e1461138f565b60045f3373ffffffffffffffffffffffffffffffffffffffff1673ffffffffffffffffffffffffffffffffffffffff1681526020019081526020015f205f015f9054906101000a900460ff16610e9f576040517f08c379a0000000000000000000000000000000000000000000000000000000008152600401610e96906117e4565b60405180910390fd5b60045f8373ffffffffffffffffffffffffffffffffffffffff1673ffffffffffffffffffffffffffffffffffffffff1681526020019081526020015f206040518060600160405290815f82015f9054906101000a900460ff161515151581526020015f820160019054906101000a900460ff161515151581526020016001820154815250509050919050565b610f33611230565b60026005811115610f4757610f4661151b565b5b60025f9054906101000a900460ff166005811115610f6857610f6761151b565b5b14610fa8576040517f08c379a0000000000000000000000000000000000000000000000000000000008152600401610f9f90612125565b60405180910390fd5b600360025f6101000a81548160ff02191690836005811115610fcd57610fcc61151b565b5b02179055507f0a97a4ee45751e2abf3e4fc8946939630b11b371ea8ae39ccdc3056e98f5cc3f60026003604051611005929190611f72565b60405180910390a1565b611017611230565b5f73ffffffffffffffffffffffffffffffffffffffff168173ffffffffffffffffffffffffffffffffffffffff1603611085576040517f08c379a000000000000000000000000000000000000000000000000000000000815260040161107c906121b3565b60405180910390fd5b61108e816112ae565b50565b611099611230565b5f60058111156110ac576110ab61151b565b5b60025f9054906101000a900460ff1660058111156110cd576110cc61151b565b5b1461110d576040517f08c379a000000000000000000000000000000000000000000000000000000000815260040161110490612241565b60405180910390fd5b6001151560045f8373ffffffffffffffffffffffffffffffffffffffff1673ffffffffffffffffffffffffffffffffffffffff1681526020019081526020015f205f015f9054906101000a900460ff1615150361119f576040517f08c379a0000000000000000000000000000000000000000000000000000000008152600401611196906122a9565b60405180910390fd5b600160045f8373ffffffffffffffffffffffffffffffffffffffff1673ffffffffffffffffffffffffffffffffffffffff1681526020019081526020015f205f015f6101000a81548160ff0219169083151502179055507fb6be2187d059cc2a55fe29e0e503b566e1e0f8c8780096e185429350acffd3dd816040516112259190611502565b60405180910390a150565b61123861136f565b73ffffffffffffffffffffffffffffffffffffffff16611256610937565b73ffffffffffffffffffffffffffffffffffffffff16146112ac576040517f08c379a00000000000000000000000000000000000000000000000000000000081526004016112a390612311565b60405180910390fd5b565b5f805f9054906101000a900473ffffffffffffffffffffffffffffffffffffffff169050815f806101000a81548173ffffffffffffffffffffffffffffffffffffffff021916908373ffffffffffffffffffffffffffffffffffffffff1602179055508173ffffffffffffffffffffffffffffffffffffffff168173ffffffffffffffffffffffffffffffffffffffff167f8be0079c531659141344cd1fd0a4f28419497f9722a3daafe3b4186f6b6457e060405160405180910390a35050565b5f33905090565b6040518060400160405280606081526020015f81525090565b60405180606001604052805f151581526020015f151581526020015f81525090565b5f80fd5b5f80fd5b5f819050919050565b6113cb816113b9565b81146113d5575f80fd5b50565b5f813590506113e6816113c2565b92915050565b5f60208284031215611401576114006113b1565b5b5f61140e848285016113d8565b91505092915050565b5f80fd5b5f80fd5b5f80fd5b5f8083601f84011261143857611437611417565b5b8235905067ffffffffffffffff8111156114555761145461141b565b5b6020830191508360018202830111156114715761147061141f565b5b9250929050565b5f806020838503121561148e5761148d6113b1565b5b5f83013567ffffffffffffffff8111156114ab576114aa6113b5565b5b6114b785828601611423565b92509250509250929050565b5f73ffffffffffffffffffffffffffffffffffffffff82169050919050565b5f6114ec826114c3565b9050919050565b6114fc816114e2565b82525050565b5f6020820190506115155f8301846114f3565b92915050565b7f4e487b71000000000000000000000000000000000000000000000000000000005f52602160045260245ffd5b600681106115595761155861151b565b5b50565b5f81905061156982611548565b919050565b5f6115788261155c565b9050919050565b6115888161156e565b82525050565b5f6020820190506115a15f83018461157f565b92915050565b5f81519050919050565b5f82825260208201905092915050565b5f5b838110156115de5780820151818401526020810190506115c3565b5f8484015250505050565b5f601f19601f8301169050919050565b5f611603826115a7565b61160d81856115b1565b935061161d8185602086016115c1565b611626816115e9565b840191505092915050565b61163a816113b9565b82525050565b5f604083015f8301518482035f86015261165a82826115f9565b915050602083015161166f6020860182611631565b508091505092915050565b5f6020820190508181035f8301526116928184611640565b905092915050565b6116a3816113b9565b82525050565b5f6020820190506116bc5f83018461169a565b92915050565b6116cb816114e2565b81146116d5575f80fd5b50565b5f813590506116e6816116c2565b92915050565b5f60208284031215611701576117006113b1565b5b5f61170e848285016116d8565b91505092915050565b5f8115159050919050565b61172b81611717565b82525050565b606082015f8201516117455f850182611722565b5060208201516117586020850182611722565b50604082015161176b6040850182611631565b50505050565b5f6060820190506117845f830184611731565b92915050565b5f82825260208201905092915050565b7f596f75277265206e6f74206120766f74657200000000000000000000000000005f82015250565b5f6117ce60128361178a565b91506117d98261179a565b602082019050919050565b5f6020820190508181035f8301526117fb816117c2565b9050919050565b7f566f74696e672073657373696f6e20686176656e7420737461727465642079655f8201527f7400000000000000000000000000000000000000000000000000000000000000602082015250565b5f61185c60218361178a565b915061186782611802565b604082019050919050565b5f6020820190508181035f83015261188981611850565b9050919050565b7f596f75206861766520616c726561647920766f746564000000000000000000005f82015250565b5f6118c460168361178a565b91506118cf82611890565b602082019050919050565b5f6020820190508181035f8301526118f1816118b8565b9050919050565b7f50726f706f73616c206e6f7420666f756e6400000000000000000000000000005f82015250565b5f61192c60128361178a565b9150611937826118f8565b602082019050919050565b5f6020820190508181035f83015261195981611920565b9050919050565b7f4e487b71000000000000000000000000000000000000000000000000000000005f52603260045260245ffd5b7f4e487b71000000000000000000000000000000000000000000000000000000005f52601160045260245ffd5b5f6119c4826113b9565b91507fffffffffffffffffffffffffffffffffffffffffffffffffffffffffffffffff82036119f6576119f561198d565b5b600182019050919050565b5f604082019050611a145f8301856114f3565b611a21602083018461169a565b9392505050565b7f50726f706f73616c7320617265206e6f7420616c6c6f776564207965740000005f82015250565b5f611a5c601d8361178a565b9150611a6782611a28565b602082019050919050565b5f6020820190508181035f830152611a8981611a50565b9050919050565b50565b5f611a9e5f8361178a565b9150611aa982611a90565b5f82019050919050565b5f6020820190508181035f830152611aca81611a93565b9050919050565b828183375f83830152505050565b5f611aea838561178a565b9350611af7838584611ad1565b611b00836115e9565b840190509392505050565b5f6020820190508181035f830152611b24818486611adf565b90509392505050565b7f566f7573206e6520706f7576657a20706173206e65207269656e2070726f706f5f8201527f7365720000000000000000000000000000000000000000000000000000000000602082015250565b5f611b8760238361178a565b9150611b9282611b2d565b604082019050919050565b5f6020820190508181035f830152611bb481611b7b565b9050919050565b7f4e487b71000000000000000000000000000000000000000000000000000000005f52604160045260245ffd5b7f4e487b71000000000000000000000000000000000000000000000000000000005f52602260045260245ffd5b5f6002820490506001821680611c2c57607f821691505b602082108103611c3f57611c3e611be8565b5b50919050565b5f819050815f5260205f209050919050565b5f6020601f8301049050919050565b5f82821b905092915050565b5f60088302611ca17fffffffffffffffffffffffffffffffffffffffffffffffffffffffffffffffff82611c66565b611cab8683611c66565b95508019841693508086168417925050509392505050565b5f819050919050565b5f611ce6611ce1611cdc846113b9565b611cc3565b6113b9565b9050919050565b5f819050919050565b611cff83611ccc565b611d13611d0b82611ced565b848454611c72565b825550505050565b5f90565b611d27611d1b565b611d32818484611cf6565b505050565b5b81811015611d5557611d4a5f82611d1f565b600181019050611d38565b5050565b601f821115611d9a57611d6b81611c45565b611d7484611c57565b81016020851015611d83578190505b611d97611d8f85611c57565b830182611d37565b50505b505050565b5f82821c905092915050565b5f611dba5f1984600802611d9f565b1980831691505092915050565b5f611dd28383611dab565b9150826002028217905092915050565b611deb826115a7565b67ffffffffffffffff811115611e0457611e03611bbb565b5b611e0e8254611c15565b611e19828285611d59565b5f60209050601f831160018114611e4a575f8415611e38578287015190505b611e428582611dc7565b865550611ea9565b601f198416611e5886611c45565b5f5b82811015611e7f57848901518255600182019150602085019450602081019050611e5a565b86831015611e9c5784890151611e98601f891682611dab565b8355505b6001600288020188555050505b505050505050565b5f611ebb826113b9565b9150611ec6836113b9565b9250828203905081811115611ede57611edd61198d565b5b92915050565b7f43757272656e7420737461747573206973206e6f7420766f74696e67207365735f8201527f73696f6e20656e64656400000000000000000000000000000000000000000000602082015250565b5f611f3e602a8361178a565b9150611f4982611ee4565b604082019050919050565b5f6020820190508181035f830152611f6b81611f32565b9050919050565b5f604082019050611f855f83018561157f565b611f92602083018461157f565b9392505050565b7f5265676973746572696e672070726f706f73616c732063616e742062652073745f8201527f6172746564206e6f770000000000000000000000000000000000000000000000602082015250565b5f611ff360298361178a565b9150611ffe82611f99565b604082019050919050565b5f6020820190508181035f83015261202081611fe7565b9050919050565b7f5265676973746572696e672070726f706f73616c7320686176656e74207374615f8201527f7274656420796574000000000000000000000000000000000000000000000000602082015250565b5f61208160288361178a565b915061208c82612027565b604082019050919050565b5f6020820190508181035f8301526120ae81612075565b9050919050565b7f5265676973746572696e672070726f706f73616c73207068617365206973206e5f8201527f6f742066696e6973686564000000000000000000000000000000000000000000602082015250565b5f61210f602b8361178a565b915061211a826120b5565b604082019050919050565b5f6020820190508181035f83015261213c81612103565b9050919050565b7f4f776e61626c653a206e6577206f776e657220697320746865207a65726f20615f8201527f6464726573730000000000000000000000000000000000000000000000000000602082015250565b5f61219d60268361178a565b91506121a882612143565b604082019050919050565b5f6020820190508181035f8301526121ca81612191565b9050919050565b7f566f7465727320726567697374726174696f6e206973206e6f74206f70656e205f8201527f7965740000000000000000000000000000000000000000000000000000000000602082015250565b5f61222b60238361178a565b9150612236826121d1565b604082019050919050565b5f6020820190508181035f8301526122588161221f565b9050919050565b7f416c7265616479207265676973746572656400000000000000000000000000005f82015250565b5f61229360128361178a565b915061229e8261225f565b602082019050919050565b5f6020820190508181035f8301526122c081612287565b9050919050565b7f4f776e61626c653a2063616c6c6572206973206e6f7420746865206f776e65725f82015250565b5f6122fb60208361178a565b9150612306826122c7565b602082019050919050565b5f6020820190508181035f830152612328816122ef565b905091905056fea2646970667358221220bb2591f74732bd600cebba3466616d716210c52783f4439cb9052c81c42365c564736f6c63430008140033",
  "immutableReferences": {},
  "source": "// Licence MIT pour le contrat\n// SPDX-License-Identifier: MIT\n\n// Dfinition de la version du compilateur Solidity  utiliser\npragma solidity 0.8.20;\n\n// Import du contrat Ownable d'OpenZeppelin qui gre les permissions\nimport \"@openzeppelin/contracts/access/Ownable.sol\";\n\n// Dfinition du contrat Voting qui hrite des fonctionnalits de Ownable\ncontract Voting is Ownable {\n    // Variable publique qui stocke l'identifiant de la proposition gagnante\n    uint public winningProposalID;\n    \n    // Structure qui dfinit les proprits d'un votant\n    struct Voter {\n        // Boolen indiquant si le votant est enregistr dans le systme\n        bool isRegistered;\n        // Boolen indiquant si le votant a dj vot\n        bool hasVoted;\n        // Identifiant de la proposition pour laquelle le votant a vot\n        uint votedProposalId;\n    }\n\n    // Structure qui dfinit les proprits d'une proposition\n    struct Proposal {\n        // Description textuelle de la proposition\n        string description;\n        // Compteur du nombre de votes reus par la proposition\n        uint voteCount;\n    }\n\n    // numration qui dfinit tous les tats possibles du processus de vote\n    enum  WorkflowStatus {\n        // tat initial : enregistrement des votants\n        RegisteringVoters,\n        // tat : dbut de l'enregistrement des propositions\n        ProposalsRegistrationStarted,\n        // tat : fin de l'enregistrement des propositions\n        ProposalsRegistrationEnded,\n        // tat : dbut de la session de vote\n        VotingSessionStarted,\n        // tat : fin de la session de vote\n        VotingSessionEnded,\n        // tat final : votes comptabiliss\n        VotesTallied\n    }\n\n    // Variable publique qui stocke l'tat actuel du workflow\n    WorkflowStatus public workflowStatus;\n    // Tableau dynamique qui stocke toutes les propositions\n    Proposal[] proposalsArray;\n    // Mapping qui associe chaque adresse  un votant\n    mapping (address => Voter) voters;\n\n    // vnement mis quand un nouveau votant est enregistr\n    event VoterRegistered(address voterAddress); \n    // vnement mis quand l'tat du workflow change\n    event WorkflowStatusChange(WorkflowStatus previousStatus, WorkflowStatus newStatus);\n    // vnement mis quand une nouvelle proposition est enregistre\n    event ProposalRegistered(uint proposalId);\n    // vnement mis quand un votant vote\n    event Voted (address voter, uint proposalId);\n\n    // Constructeur du contrat qui initialise le propritaire\n    constructor() Ownable() {    }\n    \n    // Modificateur qui vrifie si l'appelant est un votant enregistr\n    modifier onlyVoters() {\n        // Vrifie si l'adresse de l'appelant est enregistre comme votant\n        require(voters[msg.sender].isRegistered, \"You're not a voter\"); // On aurait aussi pu utiliser une Custom Error\n        // Continue l'excution de la fonction si la condition est remplie\n        _;\n    }\n    \n    // on peut faire un modifier pour les tats\n\n    // ::::::::::::: GETTERS ::::::::::::: //\n\n    // Fonction qui retourne les informations d'un votant spcifique\n    function getVoter(address _addr) external onlyVoters view returns (Voter memory) {\n        // Retourne les informations du votant  l'adresse spcifie\n        return voters[_addr];\n    }\n    \n    // Fonction qui retourne les informations d'une proposition spcifique\n    function getOneProposal(uint _id) external onlyVoters view returns (Proposal memory) {\n        // Retourne la proposition  l'index spcifi\n        return proposalsArray[_id];\n    }\n\n    // ::::::::::::: REGISTRATION ::::::::::::: // \n\n    // Fonction pour ajouter un nouveau votant (accessible uniquement par le propritaire)\n    function addVoter(address _addr) external onlyOwner {\n        // Vrifie si on est dans la phase d'enregistrement des votants\n        require(workflowStatus == WorkflowStatus.RegisteringVoters, 'Voters registration is not open yet');\n        // Vrifie si le votant n'est pas dj enregistr\n        require(voters[_addr].isRegistered != true, 'Already registered');\n    \n        // Enregistre le votant\n        voters[_addr].isRegistered = true;\n        // met l'vnement d'enregistrement\n        emit VoterRegistered(_addr);\n    }\n\n    // ::::::::::::: PROPOSAL ::::::::::::: // \n\n    // Fonction pour ajouter une nouvelle proposition\n    function addProposal(string calldata _desc) external onlyVoters {\n        // Vrifie si on est dans la phase d'enregistrement des propositions\n        require(workflowStatus == WorkflowStatus.ProposalsRegistrationStarted, 'Proposals are not allowed yet');\n        // Vrifie que la description n'est pas vide\n        require(keccak256(abi.encode(_desc)) != keccak256(abi.encode(\"\")), 'Vous ne pouvez pas ne rien proposer');\n\n        // Cre une nouvelle proposition\n        Proposal memory proposal;\n        // Dfinit la description de la proposition\n        proposal.description = _desc;\n        // Ajoute la proposition au tableau\n        proposalsArray.push(proposal);\n        // met l'vnement d'enregistrement de la proposition\n        emit ProposalRegistered(proposalsArray.length-1);\n    }\n\n    // ::::::::::::: VOTE ::::::::::::: //\n\n    // Fonction pour voter pour une proposition\n    function setVote( uint _id) external onlyVoters {\n        // Vrifie si on est dans la phase de vote\n        require(workflowStatus == WorkflowStatus.VotingSessionStarted, 'Voting session havent started yet');\n        // Vrifie si le votant n'a pas dj vot\n        require(voters[msg.sender].hasVoted != true, 'You have already voted');\n        // Vrifie si l'ID de la proposition est valide\n        require(_id < proposalsArray.length, 'Proposal not found');\n\n        // Enregistre le vote du votant\n        voters[msg.sender].votedProposalId = _id;\n        // Marque le votant comme ayant vot\n        voters[msg.sender].hasVoted = true;\n        // Incrmente le compteur de votes de la proposition\n        proposalsArray[_id].voteCount++;\n\n        // met l'vnement de vote\n        emit Voted(msg.sender, _id);\n    }\n\n    // ::::::::::::: STATE ::::::::::::: //\n\n    // Fonction pour dmarrer l'enregistrement des propositions\n    function startProposalsRegistering() external onlyOwner {\n        // Vrifie si on est dans la phase d'enregistrement des votants\n        require(workflowStatus == WorkflowStatus.RegisteringVoters, 'Registering proposals cant be started now');\n        // Change l'tat vers l'enregistrement des propositions\n        workflowStatus = WorkflowStatus.ProposalsRegistrationStarted;\n        \n        // Cre et ajoute la proposition GENESIS\n        Proposal memory proposal;\n        proposal.description = \"GENESIS\";\n        proposalsArray.push(proposal);\n        \n        // met l'vnement de changement d'tat\n        emit WorkflowStatusChange(WorkflowStatus.RegisteringVoters, WorkflowStatus.ProposalsRegistrationStarted);\n    }\n\n    // Fonction pour terminer l'enregistrement des propositions\n    function endProposalsRegistering() external onlyOwner {\n        // Vrifie si on est dans la phase d'enregistrement des propositions\n        require(workflowStatus == WorkflowStatus.ProposalsRegistrationStarted, 'Registering proposals havent started yet');\n        // Change l'tat vers la fin de l'enregistrement des propositions\n        workflowStatus = WorkflowStatus.ProposalsRegistrationEnded;\n        // met l'vnement de changement d'tat\n        emit WorkflowStatusChange(WorkflowStatus.ProposalsRegistrationStarted, WorkflowStatus.ProposalsRegistrationEnded);\n    }\n\n    // Fonction pour dmarrer la session de vote\n    function startVotingSession() external onlyOwner {\n        // Vrifie si on est dans la phase de fin d'enregistrement des propositions\n        require(workflowStatus == WorkflowStatus.ProposalsRegistrationEnded, 'Registering proposals phase is not finished');\n        // Change l'tat vers le dbut de la session de vote\n        workflowStatus = WorkflowStatus.VotingSessionStarted;\n        // met l'vnement de changement d'tat\n        emit WorkflowStatusChange(WorkflowStatus.ProposalsRegistrationEnded, WorkflowStatus.VotingSessionStarted);\n    }\n\n    // Fonction pour terminer la session de vote\n    function endVotingSession() external onlyOwner {\n        // Vrifie si on est dans la phase de vote\n        require(workflowStatus == WorkflowStatus.VotingSessionStarted, 'Voting session havent started yet');\n        // Change l'tat vers la fin de la session de vote\n        workflowStatus = WorkflowStatus.VotingSessionEnded;\n        // met l'vnement de changement d'tat\n        emit WorkflowStatusChange(WorkflowStatus.VotingSessionStarted, WorkflowStatus.VotingSessionEnded);\n    }\n\n    // Fonction pour comptabiliser les votes et dterminer le gagnant\n    function tallyVotes() external onlyOwner {\n        // Vrifie si on est dans la phase de fin de session de vote\n        require(workflowStatus == WorkflowStatus.VotingSessionEnded, \"Current status is not voting session ended\");\n        // Variable temporaire pour stocker l'ID de la proposition gagnante\n        uint _winningProposalId;\n        // Parcourt toutes les propositions pour trouver celle avec le plus de votes\n        for (uint256 p = 0; p < proposalsArray.length; p++) {\n            // Compare le nombre de votes de la proposition courante avec la meilleure proposition actuelle\n            if (proposalsArray[p].voteCount > proposalsArray[_winningProposalId].voteCount) {\n                // Met  jour l'ID de la proposition gagnante si ncessaire\n                _winningProposalId = p;\n            }\n        }\n        // Stocke l'ID de la proposition gagnante\n        winningProposalID = _winningProposalId;\n        \n        // Change l'tat vers la fin du processus (votes comptabiliss)\n        workflowStatus = WorkflowStatus.VotesTallied;\n        // met l'vnement de changement d'tat\n        emit WorkflowStatusChange(WorkflowStatus.VotingSessionEnded, WorkflowStatus.VotesTallied);\n    }\n}",
  "sourcePath": "/Users/solomontaffou/Desktop/voting-truffle/contracts/Voting.sol",
  "compiler": {
    "name": "solc",
    "version": "0.8.20+commit.a1b79de6.Emscripten.clang"
  },
  "schemaVersion": "3.4.16",
  "updatedAt": "2025-06-02T14:47:30.860Z",
  "devdoc": {
    "kind": "dev",
    "methods": {
      "owner()": {
        "details": "Returns the address of the current owner."
      },
      "renounceOwnership()": {
        "details": "Leaves the contract without owner. It will not be possible to call `onlyOwner` functions. Can only be called by the current owner. NOTE: Renouncing ownership will leave the contract without an owner, thereby disabling any functionality that is only available to the owner."
      },
      "transferOwnership(address)": {
        "details": "Transfers ownership of the contract to a new account (`newOwner`). Can only be called by the current owner."
      }
    },
    "version": 1
  },
  "userdoc": {
    "kind": "user",
    "methods": {},
    "version": 1
  }
}